{"project/contracts/BoostAaveVault.sol":{"BoostAaveVault":{"abi":[{"inputs":[{"internalType":"address","name":"pool_","type":"address"},{"internalType":"address","name":"asset_","type":"address"}],"stateMutability":"nonpayable","type":"constructor"},{"inputs":[{"internalType":"address","name":"spender","type":"address"},{"internalType":"uint256","name":"allowance","type":"uint256"},{"internalType":"uint256","name":"needed","type":"uint256"}],"name":"ERC20InsufficientAllowance","type":"error"},{"inputs":[{"internalType":"address","name":"sender","type":"address"},{"internalType":"uint256","name":"balance","type":"uint256"},{"internalType":"uint256","name":"needed","type":"uint256"}],"name":"ERC20InsufficientBalance","type":"error"},{"inputs":[{"internalType":"address","name":"approver","type":"address"}],"name":"ERC20InvalidApprover","type":"error"},{"inputs":[{"internalType":"address","name":"receiver","type":"address"}],"name":"ERC20InvalidReceiver","type":"error"},{"inputs":[{"internalType":"address","name":"sender","type":"address"}],"name":"ERC20InvalidSender","type":"error"},{"inputs":[{"internalType":"address","name":"spender","type":"address"}],"name":"ERC20InvalidSpender","type":"error"},{"inputs":[],"name":"ReentrancyGuardReentrantCall","type":"error"},{"inputs":[{"internalType":"address","name":"token","type":"address"}],"name":"SafeERC20FailedOperation","type":"error"},{"anonymous":false,"inputs":[{"indexed":true,"internalType":"address","name":"owner","type":"address"},{"indexed":true,"internalType":"address","name":"spender","type":"address"},{"indexed":false,"internalType":"uint256","name":"value","type":"uint256"}],"name":"Approval","type":"event"},{"anonymous":false,"inputs":[{"indexed":true,"internalType":"address","name":"user","type":"address"},{"indexed":false,"internalType":"uint256","name":"amount","type":"uint256"},{"indexed":true,"internalType":"address","name":"cause","type":"address"}],"name":"Donated","type":"event"},{"anonymous":false,"inputs":[{"indexed":true,"internalType":"address","name":"user","type":"address"},{"indexed":false,"internalType":"uint8","name":"pct","type":"uint8"},{"indexed":false,"internalType":"address","name":"cause","type":"address"}],"name":"DonationSet","type":"event"},{"anonymous":false,"inputs":[{"indexed":true,"internalType":"address","name":"from","type":"address"},{"indexed":true,"internalType":"address","name":"to","type":"address"},{"indexed":false,"internalType":"uint256","name":"value","type":"uint256"}],"name":"Transfer","type":"event"},{"inputs":[],"name":"ASSET","outputs":[{"internalType":"contract IERC20","name":"","type":"address"}],"stateMutability":"view","type":"function"},{"inputs":[],"name":"ATOKEN","outputs":[{"internalType":"address","name":"","type":"address"}],"stateMutability":"view","type":"function"},{"inputs":[],"name":"POOL","outputs":[{"internalType":"contract IPool","name":"","type":"address"}],"stateMutability":"view","type":"function"},{"inputs":[{"internalType":"address","name":"owner","type":"address"},{"internalType":"address","name":"spender","type":"address"}],"name":"allowance","outputs":[{"internalType":"uint256","name":"","type":"uint256"}],"stateMutability":"view","type":"function"},{"inputs":[{"internalType":"address","name":"spender","type":"address"},{"internalType":"uint256","name":"value","type":"uint256"}],"name":"approve","outputs":[{"internalType":"bool","name":"","type":"bool"}],"stateMutability":"nonpayable","type":"function"},{"inputs":[{"internalType":"address","name":"account","type":"address"}],"name":"balanceOf","outputs":[{"internalType":"uint256","name":"","type":"uint256"}],"stateMutability":"view","type":"function"},{"inputs":[{"internalType":"address","name":"","type":"address"}],"name":"beneficiaryOf","outputs":[{"internalType":"address","name":"","type":"address"}],"stateMutability":"view","type":"function"},{"inputs":[],"name":"decimals","outputs":[{"internalType":"uint8","name":"","type":"uint8"}],"stateMutability":"pure","type":"function"},{"inputs":[{"internalType":"uint256","name":"assets","type":"uint256"},{"internalType":"address","name":"receiver","type":"address"}],"name":"deposit","outputs":[{"internalType":"uint256","name":"shares","type":"uint256"}],"stateMutability":"nonpayable","type":"function"},{"inputs":[{"internalType":"address","name":"","type":"address"}],"name":"donationPctOf","outputs":[{"internalType":"uint8","name":"","type":"uint8"}],"stateMutability":"view","type":"function"},{"inputs":[],"name":"name","outputs":[{"internalType":"string","name":"","type":"string"}],"stateMutability":"view","type":"function"},{"inputs":[{"internalType":"uint256","name":"assets","type":"uint256"}],"name":"previewDeposit","outputs":[{"internalType":"uint256","name":"","type":"uint256"}],"stateMutability":"view","type":"function"},{"inputs":[{"internalType":"uint256","name":"shares","type":"uint256"}],"name":"previewRedeem","outputs":[{"internalType":"uint256","name":"","type":"uint256"}],"stateMutability":"view","type":"function"},{"inputs":[{"internalType":"address","name":"","type":"address"}],"name":"principalOf","outputs":[{"internalType":"uint256","name":"","type":"uint256"}],"stateMutability":"view","type":"function"},{"inputs":[{"internalType":"uint256","name":"shares","type":"uint256"},{"internalType":"address","name":"receiver","type":"address"},{"internalType":"address","name":"owner","type":"address"}],"name":"redeem","outputs":[{"internalType":"uint256","name":"assets","type":"uint256"}],"stateMutability":"nonpayable","type":"function"},{"inputs":[{"internalType":"uint8","name":"pct","type":"uint8"},{"internalType":"address","name":"cause","type":"address"}],"name":"setMyDonation","outputs":[],"stateMutability":"nonpayable","type":"function"},{"inputs":[],"name":"symbol","outputs":[{"internalType":"string","name":"","type":"string"}],"stateMutability":"view","type":"function"},{"inputs":[],"name":"totalAssets","outputs":[{"internalType":"uint256","name":"","type":"uint256"}],"stateMutability":"view","type":"function"},{"inputs":[],"name":"totalSupply","outputs":[{"internalType":"uint256","name":"","type":"uint256"}],"stateMutability":"view","type":"function"},{"inputs":[{"internalType":"address","name":"to","type":"address"},{"internalType":"uint256","name":"value","type":"uint256"}],"name":"transfer","outputs":[{"internalType":"bool","name":"","type":"bool"}],"stateMutability":"nonpayable","type":"function"},{"inputs":[{"internalType":"address","name":"from","type":"address"},{"internalType":"address","name":"to","type":"address"},{"internalType":"uint256","name":"value","type":"uint256"}],"name":"transferFrom","outputs":[{"internalType":"bool","name":"","type":"bool"}],"stateMutability":"nonpayable","type":"function"}],"evm":{"bytecode":{"linkReferences":{},"object":"60e060405234801562000010575f80fd5b50604051620018c2380380620018c283398101604081905262000033916200031e565b6040518060400160405280601081526020016f109bdbdcdd0818d554d10815985d5b1d60821b815250604051806040016040528060058152602001641898d554d160da1b81525081600390816200008b9190620003f4565b5060046200009a8282620003f4565b50506001600555506001600160a01b038216620000ed5760405162461bcd60e51b815260206004820152600c60248201526b125b9d985b1a59081c1bdbdb60a21b60448201526064015b60405180910390fd5b6001600160a01b038116620001355760405162461bcd60e51b815260206004820152600d60248201526c125b9d985b1a5908185cdcd95d609a1b6044820152606401620000e4565b6001600160a01b03808316608081905290821660a0819052734e65fe4dba92790696d040ac24aa414708f5c0ab60c05262000172915f196200017a565b5050620004bc565b604080516001600160a01b038416602482015260448082018490528251808303909101815260649091019091526020810180516001600160e01b0390811663095ea7b360e01b17909152620001d490859083906200024516565b6200023f57604080516001600160a01b03851660248201525f6044808301919091528251808303909101815260649091019091526020810180516001600160e01b0390811663095ea7b360e01b17909152620002339186916200029116565b6200023f848262000291565b50505050565b5f805f8060205f8651602088015f8a5af192503d91505f519050828015620002875750811562000279578060011462000287565b5f866001600160a01b03163b115b9695505050505050565b5f8060205f8451602086015f885af180620002b1576040513d5f823e3d81fd5b50505f513d91508115620002ca578060011415620002d7565b6001600160a01b0384163b155b156200023f57604051635274afe760e01b81526001600160a01b0385166004820152602401620000e4565b80516001600160a01b038116811462000319575f80fd5b919050565b5f806040838503121562000330575f80fd5b6200033b8362000302565b91506200034b6020840162000302565b90509250929050565b634e487b7160e01b5f52604160045260245ffd5b600181811c908216806200037d57607f821691505b6020821081036200039c57634e487b7160e01b5f52602260045260245ffd5b50919050565b601f821115620003ef575f81815260208120601f850160051c81016020861015620003ca5750805b601f850160051c820191505b81811015620003eb57828155600101620003d6565b5050505b505050565b81516001600160401b0381111562000410576200041062000354565b620004288162000421845462000368565b84620003a2565b602080601f8311600181146200045e575f8415620004465750858301515b5f19600386901b1c1916600185901b178555620003eb565b5f85815260208120601f198616915b828110156200048e578886015182559484019460019091019084016200046d565b5085821015620004ac57878501515f19600388901b60f8161c191681555b5050505050600190811b01905550565b60805160a05160c0516113a36200051f5f395f8181610210015261037d01525f81816101be01528181610619015281816106580152818161090e01528181610a5b0152610af901525f818161029101528181610693015261094501526113a35ff3fe608060405234801561000f575f80fd5b5060043610610132575f3560e01c80636e553f65116100b4578063ba08765211610079578063ba087652146102ce578063ba7bffd3146102e1578063cb95a0ca14610309578063dd62ed3e1461031e578063ef8b30f714610331578063f6a6845314610344575f80fd5b80636e553f651461025157806370a08231146102645780637535d2461461028c57806395d89b41146102b3578063a9059cbb146102bb575f80fd5b8063313ce567116100fa578063313ce567146101a45780634800d97f146101b95780634cdad506146101f857806351c0e0611461020b57806361e20a1c14610232575f80fd5b806301e1d1141461013657806306fdde0314610151578063095ea7b31461016657806318160ddd1461018957806323b872dd14610191575b5f80fd5b61013e610366565b6040519081526020015b60405180910390f35b6101596103f3565b604051610148919061110b565b610179610174366004611171565b610483565b6040519015158152602001610148565b60025461013e565b61017961019f366004611199565b61049c565b60125b60405160ff9091168152602001610148565b6101e07f000000000000000000000000000000000000000000000000000000000000000081565b6040516001600160a01b039091168152602001610148565b61013e6102063660046111d2565b6104c1565b6101e07f000000000000000000000000000000000000000000000000000000000000000081565b61013e6102403660046111e9565b60086020525f908152604090205481565b61013e61025f366004611202565b6104fe565b61013e6102723660046111e9565b6001600160a01b03165f9081526020819052604090205490565b6101e07f000000000000000000000000000000000000000000000000000000000000000081565b6101596106fe565b6101796102c9366004611171565b61070d565b61013e6102dc36600461122c565b61071a565b6101e06102ef3660046111e9565b60076020525f90815260409020546001600160a01b031681565b61031c610317366004611265565b610b33565b005b61013e61032c366004611294565b610c50565b61013e61033f3660046111d2565b610c7a565b6101a76103523660046111e9565b60066020525f908152604090205460ff1681565b6040516370a0823160e01b81523060048201525f907f00000000000000000000000000000000000000000000000000000000000000006001600160a01b0316906370a0823190602401602060405180830381865afa1580156103ca573d5f803e3d5ffd5b505050506040513d601f19601f820116820180604052508101906103ee91906112ae565b905090565b606060038054610402906112c5565b80601f016020809104026020016040519081016040528092919081815260200182805461042e906112c5565b80156104795780601f1061045057610100808354040283529160200191610479565b820191905f5260205f20905b81548152906001019060200180831161045c57829003601f168201915b5050505050905090565b5f33610490818585610ca6565b60019150505b92915050565b5f336104a9858285610cb8565b6104b4858585610d1c565b60019150505b9392505050565b5f806104cc60025490565b905080156104f657806104dd610366565b6104e79085611311565b6104f19190611328565b6104ba565b5f9392505050565b5f610507610d79565b5f831161054e5760405162461bcd60e51b815260206004820152601060248201526f043616e6e6f74206465706f73697420360841b60448201526064015b60405180910390fd5b6001600160a01b0382166105975760405162461bcd60e51b815260206004820152601060248201526f24b73b30b634b2103932b1b2b4bb32b960811b6044820152606401610545565b6105a083610c7a565b90505f81116105df5760405162461bcd60e51b815260206004820152600b60248201526a5a65726f2073686172657360a81b6044820152606401610545565b6001600160a01b0382165f9081526008602052604081208054859290610606908490611347565b9091555061064190506001600160a01b037f000000000000000000000000000000000000000000000000000000000000000016333086610da3565b60405163617ba03760e01b81526001600160a01b037f000000000000000000000000000000000000000000000000000000000000000081166004830152602482018590523060448301525f60648301527f0000000000000000000000000000000000000000000000000000000000000000169063617ba037906084015f604051808303815f87803b1580156106d4575f80fd5b505af11580156106e6573d5f803e3d5ffd5b505050506106f48282610e0a565b6104966001600555565b606060048054610402906112c5565b5f33610490818585610d1c565b5f610723610d79565b5f84116107645760405162461bcd60e51b815260206004820152600f60248201526e043616e6e6f742072656465656d203608c1b6044820152606401610545565b6001600160a01b0383166107ad5760405162461bcd60e51b815260206004820152601060248201526f24b73b30b634b2103932b1b2b4bb32b960811b6044820152606401610545565b336001600160a01b03831614610831575f6107c88333610c50565b9050848110156108135760405162461bcd60e51b8152602060048201526016602482015275496e73756666696369656e7420616c6c6f77616e636560501b6044820152606401610545565b5f19811461082f5761082f833361082a888561135a565b610ca6565b505b61083a846104c1565b90505f81116108795760405162461bcd60e51b815260206004820152600b60248201526a5a65726f2061737365747360a81b6044820152606401610545565b6001600160a01b0382165f908152602081815260408083205460089092528220549091826108a7575f6108bc565b826108b28884611311565b6108bc9190611328565b90508082116108cb575f6108d5565b6108d5818361135a565b6001600160a01b0386165f908152600860205260409020556108f78588610e42565b604051631a4ca37b60e21b81526001600160a01b037f000000000000000000000000000000000000000000000000000000000000000081166004830152602482018690523060448301525f917f0000000000000000000000000000000000000000000000000000000000000000909116906369328dec906064016020604051808303815f875af115801561098d573d5f803e3d5ffd5b505050506040513d601f19601f820116820180604052508101906109b191906112ae565b90505f8282116109c1575f6109cb565b6109cb838361135a565b6001600160a01b0388165f90815260066020526040812054919250906064906109f79060ff1684611311565b610a019190611328565b90505f610a0e828561135a565b90505f82118015610a3757506001600160a01b038981165f908152600760205260409020541615155b15610adc576001600160a01b03808a165f90815260076020526040902054610a84917f00000000000000000000000000000000000000000000000000000000000000008116911684610e76565b6001600160a01b03808a165f81815260076020526040908190205490519216917f74fc87cbb4be85c415ffc1038cd5dcfc4f566ecc4adb03ff9be46c416162bc7990610ad39086815260200190565b60405180910390a35b610b208a5f8411610aed5785610aef565b825b6001600160a01b037f0000000000000000000000000000000000000000000000000000000000000000169190610e76565b5091955050505050506104ba6001600555565b60648260ff161115610b7c5760405162461bcd60e51b8152602060048201526012602482015271496e76616c69642070657263656e7461676560701b6044820152606401610545565b6001600160a01b038116151580610b94575060ff8216155b610bd05760405162461bcd60e51b815260206004820152600d60248201526c496e76616c696420636175736560981b6044820152606401610545565b335f818152600660209081526040808320805460ff191660ff8816908117909155600783529281902080546001600160a01b0319166001600160a01b0387169081179091558151938452918301919091527f3f6afadedfcbd97b0172e2973f0fe1190eba1e85b83fe7eb03145a83488aad27910160405180910390a25050565b6001600160a01b039182165f90815260016020908152604080832093909416825291909152205490565b5f80610c8560025490565b90508015610c9f57610c95610366565b6104e78285611311565b5090919050565b610cb38383836001610ea7565b505050565b5f610cc38484610c50565b90505f19811015610d165781811015610d0857604051637dc7a0d960e11b81526001600160a01b03841660048201526024810182905260448101839052606401610545565b610d1684848484035f610ea7565b50505050565b6001600160a01b038316610d4557604051634b637e8f60e11b81525f6004820152602401610545565b6001600160a01b038216610d6e5760405163ec442f0560e01b81525f6004820152602401610545565b610cb3838383610f79565b600260055403610d9c57604051633ee5aeb560e01b815260040160405180910390fd5b6002600555565b6040516001600160a01b038481166024830152838116604483015260648201839052610d169186918216906323b872dd906084015b604051602081830303815290604052915060e01b6020820180516001600160e01b03838183161783525050505061109f565b6001600160a01b038216610e335760405163ec442f0560e01b81525f6004820152602401610545565b610e3e5f8383610f79565b5050565b6001600160a01b038216610e6b57604051634b637e8f60e11b81525f6004820152602401610545565b610e3e825f83610f79565b6040516001600160a01b03838116602483015260448201839052610cb391859182169063a9059cbb90606401610dd8565b6001600160a01b038416610ed05760405163e602df0560e01b81525f6004820152602401610545565b6001600160a01b038316610ef957604051634a1406b160e11b81525f6004820152602401610545565b6001600160a01b038085165f9081526001602090815260408083209387168352929052208290558015610d1657826001600160a01b0316846001600160a01b03167f8c5be1e5ebec7d5bd14f71427d1e84f3dd0314c0f7b2291e5b200ac8c7c3b92584604051610f6b91815260200190565b60405180910390a350505050565b6001600160a01b038316610fa3578060025f828254610f989190611347565b909155506110139050565b6001600160a01b0383165f9081526020819052604090205481811015610ff55760405163391434e360e21b81526001600160a01b03851660048201526024810182905260448101839052606401610545565b6001600160a01b0384165f9081526020819052604090209082900390555b6001600160a01b03821661102f5760028054829003905561104d565b6001600160a01b0382165f9081526020819052604090208054820190555b816001600160a01b0316836001600160a01b03167fddf252ad1be2c89b69c2b068fc378daa952ba7f163c4a11628f55a4df523b3ef8360405161109291815260200190565b60405180910390a3505050565b5f8060205f8451602086015f885af1806110be576040513d5f823e3d81fd5b50505f513d915081156110d55780600114156110e2565b6001600160a01b0384163b155b15610d1657604051635274afe760e01b81526001600160a01b0385166004820152602401610545565b5f6020808352835180828501525f5b818110156111365785810183015185820160400152820161111a565b505f604082860101526040601f19601f8301168501019250505092915050565b80356001600160a01b038116811461116c575f80fd5b919050565b5f8060408385031215611182575f80fd5b61118b83611156565b946020939093013593505050565b5f805f606084860312156111ab575f80fd5b6111b484611156565b92506111c260208501611156565b9150604084013590509250925092565b5f602082840312156111e2575f80fd5b5035919050565b5f602082840312156111f9575f80fd5b6104ba82611156565b5f8060408385031215611213575f80fd5b8235915061122360208401611156565b90509250929050565b5f805f6060848603121561123e575f80fd5b8335925061124e60208501611156565b915061125c60408501611156565b90509250925092565b5f8060408385031215611276575f80fd5b823560ff81168114611286575f80fd5b915061122360208401611156565b5f80604083850312156112a5575f80fd5b61128683611156565b5f602082840312156112be575f80fd5b5051919050565b600181811c908216806112d957607f821691505b6020821081036112f757634e487b7160e01b5f52602260045260245ffd5b50919050565b634e487b7160e01b5f52601160045260245ffd5b8082028115828204841417610496576104966112fd565b5f8261134257634e487b7160e01b5f52601260045260245ffd5b500490565b80820180821115610496576104966112fd565b81810381811115610496576104966112fd56fea2646970667358221220bfccfc932c27a2c250601681500d17fb1d51deabb8a813023b2d53a34e3b35e864736f6c63430008140033","opcodes":"PUSH1 0xE0 PUSH1 0x40 MSTORE CALLVALUE DUP1 ISZERO PUSH3 0x10 JUMPI PUSH0 DUP1 REVERT JUMPDEST POP PUSH1 0x40 MLOAD PUSH3 0x18C2 CODESIZE SUB DUP1 PUSH3 0x18C2 DUP4 CODECOPY DUP2 ADD PUSH1 0x40 DUP2 SWAP1 MSTORE PUSH3 0x33 SWAP2 PUSH3 0x31E JUMP JUMPDEST PUSH1 0x40 MLOAD DUP1 PUSH1 0x40 ADD PUSH1 0x40 MSTORE DUP1 PUSH1 0x10 DUP2 MSTORE PUSH1 0x20 ADD PUSH16 0x109BDBDCDD0818D554D10815985D5B1D PUSH1 0x82 SHL DUP2 MSTORE POP PUSH1 0x40 MLOAD DUP1 PUSH1 0x40 ADD PUSH1 0x40 MSTORE DUP1 PUSH1 0x5 DUP2 MSTORE PUSH1 0x20 ADD PUSH5 0x1898D554D1 PUSH1 0xDA SHL DUP2 MSTORE POP DUP2 PUSH1 0x3 SWAP1 DUP2 PUSH3 0x8B SWAP2 SWAP1 PUSH3 0x3F4 JUMP JUMPDEST POP PUSH1 0x4 PUSH3 0x9A DUP3 DUP3 PUSH3 0x3F4 JUMP JUMPDEST POP POP PUSH1 0x1 PUSH1 0x5 SSTORE POP PUSH1 0x1 PUSH1 0x1 PUSH1 0xA0 SHL SUB DUP3 AND PUSH3 0xED JUMPI PUSH1 0x40 MLOAD PUSH3 0x461BCD PUSH1 0xE5 SHL DUP2 MSTORE PUSH1 0x20 PUSH1 0x4 DUP3 ADD MSTORE PUSH1 0xC PUSH1 0x24 DUP3 ADD MSTORE PUSH12 0x125B9D985B1A59081C1BDBDB PUSH1 0xA2 SHL PUSH1 0x44 DUP3 ADD MSTORE PUSH1 0x64 ADD JUMPDEST PUSH1 0x40 MLOAD DUP1 SWAP2 SUB SWAP1 REVERT JUMPDEST PUSH1 0x1 PUSH1 0x1 PUSH1 0xA0 SHL SUB DUP2 AND PUSH3 0x135 JUMPI PUSH1 0x40 MLOAD PUSH3 0x461BCD PUSH1 0xE5 SHL DUP2 MSTORE PUSH1 0x20 PUSH1 0x4 DUP3 ADD MSTORE PUSH1 0xD PUSH1 0x24 DUP3 ADD MSTORE PUSH13 0x125B9D985B1A5908185CDCD95D PUSH1 0x9A SHL PUSH1 0x44 DUP3 ADD MSTORE PUSH1 0x64 ADD PUSH3 0xE4 JUMP JUMPDEST PUSH1 0x1 PUSH1 0x1 PUSH1 0xA0 SHL SUB DUP1 DUP4 AND PUSH1 0x80 DUP2 SWAP1 MSTORE SWAP1 DUP3 AND PUSH1 0xA0 DUP2 SWAP1 MSTORE PUSH20 0x4E65FE4DBA92790696D040AC24AA414708F5C0AB PUSH1 0xC0 MSTORE PUSH3 0x172 SWAP2 PUSH0 NOT PUSH3 0x17A JUMP JUMPDEST POP POP PUSH3 0x4BC JUMP JUMPDEST PUSH1 0x40 DUP1 MLOAD PUSH1 0x1 PUSH1 0x1 PUSH1 0xA0 SHL SUB DUP5 AND PUSH1 0x24 DUP3 ADD MSTORE PUSH1 0x44 DUP1 DUP3 ADD DUP5 SWAP1 MSTORE DUP3 MLOAD DUP1 DUP4 SUB SWAP1 SWAP2 ADD DUP2 MSTORE PUSH1 0x64 SWAP1 SWAP2 ADD SWAP1 SWAP2 MSTORE PUSH1 0x20 DUP2 ADD DUP1 MLOAD PUSH1 0x1 PUSH1 0x1 PUSH1 0xE0 SHL SUB SWAP1 DUP2 AND PUSH4 0x95EA7B3 PUSH1 0xE0 SHL OR SWAP1 SWAP2 MSTORE PUSH3 0x1D4 SWAP1 DUP6 SWAP1 DUP4 SWAP1 PUSH3 0x245 AND JUMP JUMPDEST PUSH3 0x23F JUMPI PUSH1 0x40 DUP1 MLOAD PUSH1 0x1 PUSH1 0x1 PUSH1 0xA0 SHL SUB DUP6 AND PUSH1 0x24 DUP3 ADD MSTORE PUSH0 PUSH1 0x44 DUP1 DUP4 ADD SWAP2 SWAP1 SWAP2 MSTORE DUP3 MLOAD DUP1 DUP4 SUB SWAP1 SWAP2 ADD DUP2 MSTORE PUSH1 0x64 SWAP1 SWAP2 ADD SWAP1 SWAP2 MSTORE PUSH1 0x20 DUP2 ADD DUP1 MLOAD PUSH1 0x1 PUSH1 0x1 PUSH1 0xE0 SHL SUB SWAP1 DUP2 AND PUSH4 0x95EA7B3 PUSH1 0xE0 SHL OR SWAP1 SWAP2 MSTORE PUSH3 0x233 SWAP2 DUP7 SWAP2 PUSH3 0x291 AND JUMP JUMPDEST PUSH3 0x23F DUP5 DUP3 PUSH3 0x291 JUMP JUMPDEST POP POP POP POP JUMP JUMPDEST PUSH0 DUP1 PUSH0 DUP1 PUSH1 0x20 PUSH0 DUP7 MLOAD PUSH1 0x20 DUP9 ADD PUSH0 DUP11 GAS CALL SWAP3 POP RETURNDATASIZE SWAP2 POP PUSH0 MLOAD SWAP1 POP DUP3 DUP1 ISZERO PUSH3 0x287 JUMPI POP DUP2 ISZERO PUSH3 0x279 JUMPI DUP1 PUSH1 0x1 EQ PUSH3 0x287 JUMP JUMPDEST PUSH0 DUP7 PUSH1 0x1 PUSH1 0x1 PUSH1 0xA0 SHL SUB AND EXTCODESIZE GT JUMPDEST SWAP7 SWAP6 POP POP POP POP POP POP JUMP JUMPDEST PUSH0 DUP1 PUSH1 0x20 PUSH0 DUP5 MLOAD PUSH1 0x20 DUP7 ADD PUSH0 DUP9 GAS CALL DUP1 PUSH3 0x2B1 JUMPI PUSH1 0x40 MLOAD RETURNDATASIZE PUSH0 DUP3 RETURNDATACOPY RETURNDATASIZE DUP2 REVERT JUMPDEST POP POP PUSH0 MLOAD RETURNDATASIZE SWAP2 POP DUP2 ISZERO PUSH3 0x2CA JUMPI DUP1 PUSH1 0x1 EQ ISZERO PUSH3 0x2D7 JUMP JUMPDEST PUSH1 0x1 PUSH1 0x1 PUSH1 0xA0 SHL SUB DUP5 AND EXTCODESIZE ISZERO JUMPDEST ISZERO PUSH3 0x23F JUMPI PUSH1 0x40 MLOAD PUSH4 0x5274AFE7 PUSH1 0xE0 SHL DUP2 MSTORE PUSH1 0x1 PUSH1 0x1 PUSH1 0xA0 SHL SUB DUP6 AND PUSH1 0x4 DUP3 ADD MSTORE PUSH1 0x24 ADD PUSH3 0xE4 JUMP JUMPDEST DUP1 MLOAD PUSH1 0x1 PUSH1 0x1 PUSH1 0xA0 SHL SUB DUP2 AND DUP2 EQ PUSH3 0x319 JUMPI PUSH0 DUP1 REVERT JUMPDEST SWAP2 SWAP1 POP JUMP JUMPDEST PUSH0 DUP1 PUSH1 0x40 DUP4 DUP6 SUB SLT ISZERO PUSH3 0x330 JUMPI PUSH0 DUP1 REVERT JUMPDEST PUSH3 0x33B DUP4 PUSH3 0x302 JUMP JUMPDEST SWAP2 POP PUSH3 0x34B PUSH1 0x20 DUP5 ADD PUSH3 0x302 JUMP JUMPDEST SWAP1 POP SWAP3 POP SWAP3 SWAP1 POP JUMP JUMPDEST PUSH4 0x4E487B71 PUSH1 0xE0 SHL PUSH0 MSTORE PUSH1 0x41 PUSH1 0x4 MSTORE PUSH1 0x24 PUSH0 REVERT JUMPDEST PUSH1 0x1 DUP2 DUP2 SHR SWAP1 DUP3 AND DUP1 PUSH3 0x37D JUMPI PUSH1 0x7F DUP3 AND SWAP2 POP JUMPDEST PUSH1 0x20 DUP3 LT DUP2 SUB PUSH3 0x39C JUMPI PUSH4 0x4E487B71 PUSH1 0xE0 SHL PUSH0 MSTORE PUSH1 0x22 PUSH1 0x4 MSTORE PUSH1 0x24 PUSH0 REVERT JUMPDEST POP SWAP2 SWAP1 POP JUMP JUMPDEST PUSH1 0x1F DUP3 GT ISZERO PUSH3 0x3EF JUMPI PUSH0 DUP2 DUP2 MSTORE PUSH1 0x20 DUP2 KECCAK256 PUSH1 0x1F DUP6 ADD PUSH1 0x5 SHR DUP2 ADD PUSH1 0x20 DUP7 LT ISZERO PUSH3 0x3CA JUMPI POP DUP1 JUMPDEST PUSH1 0x1F DUP6 ADD PUSH1 0x5 SHR DUP3 ADD SWAP2 POP JUMPDEST DUP2 DUP2 LT ISZERO PUSH3 0x3EB JUMPI DUP3 DUP2 SSTORE PUSH1 0x1 ADD PUSH3 0x3D6 JUMP JUMPDEST POP POP POP JUMPDEST POP POP POP JUMP JUMPDEST DUP2 MLOAD PUSH1 0x1 PUSH1 0x1 PUSH1 0x40 SHL SUB DUP2 GT ISZERO PUSH3 0x410 JUMPI PUSH3 0x410 PUSH3 0x354 JUMP JUMPDEST PUSH3 0x428 DUP2 PUSH3 0x421 DUP5 SLOAD PUSH3 0x368 JUMP JUMPDEST DUP5 PUSH3 0x3A2 JUMP JUMPDEST PUSH1 0x20 DUP1 PUSH1 0x1F DUP4 GT PUSH1 0x1 DUP2 EQ PUSH3 0x45E JUMPI PUSH0 DUP5 ISZERO PUSH3 0x446 JUMPI POP DUP6 DUP4 ADD MLOAD JUMPDEST PUSH0 NOT PUSH1 0x3 DUP7 SWAP1 SHL SHR NOT AND PUSH1 0x1 DUP6 SWAP1 SHL OR DUP6 SSTORE PUSH3 0x3EB JUMP JUMPDEST PUSH0 DUP6 DUP2 MSTORE PUSH1 0x20 DUP2 KECCAK256 PUSH1 0x1F NOT DUP7 AND SWAP2 JUMPDEST DUP3 DUP2 LT ISZERO PUSH3 0x48E JUMPI DUP9 DUP7 ADD MLOAD DUP3 SSTORE SWAP5 DUP5 ADD SWAP5 PUSH1 0x1 SWAP1 SWAP2 ADD SWAP1 DUP5 ADD PUSH3 0x46D JUMP JUMPDEST POP DUP6 DUP3 LT ISZERO PUSH3 0x4AC JUMPI DUP8 DUP6 ADD MLOAD PUSH0 NOT PUSH1 0x3 DUP9 SWAP1 SHL PUSH1 0xF8 AND SHR NOT AND DUP2 SSTORE JUMPDEST POP POP POP POP POP PUSH1 0x1 SWAP1 DUP2 SHL ADD SWAP1 SSTORE POP JUMP JUMPDEST PUSH1 0x80 MLOAD PUSH1 0xA0 MLOAD PUSH1 0xC0 MLOAD PUSH2 0x13A3 PUSH3 0x51F PUSH0 CODECOPY PUSH0 DUP2 DUP2 PUSH2 0x210 ADD MSTORE PUSH2 0x37D ADD MSTORE PUSH0 DUP2 DUP2 PUSH2 0x1BE ADD MSTORE DUP2 DUP2 PUSH2 0x619 ADD MSTORE DUP2 DUP2 PUSH2 0x658 ADD MSTORE DUP2 DUP2 PUSH2 0x90E ADD MSTORE DUP2 DUP2 PUSH2 0xA5B ADD MSTORE PUSH2 0xAF9 ADD MSTORE PUSH0 DUP2 DUP2 PUSH2 0x291 ADD MSTORE DUP2 DUP2 PUSH2 0x693 ADD MSTORE PUSH2 0x945 ADD MSTORE PUSH2 0x13A3 PUSH0 RETURN INVALID PUSH1 0x80 PUSH1 0x40 MSTORE CALLVALUE DUP1 ISZERO PUSH2 0xF JUMPI PUSH0 DUP1 REVERT JUMPDEST POP PUSH1 0x4 CALLDATASIZE LT PUSH2 0x132 JUMPI PUSH0 CALLDATALOAD PUSH1 0xE0 SHR DUP1 PUSH4 0x6E553F65 GT PUSH2 0xB4 JUMPI DUP1 PUSH4 0xBA087652 GT PUSH2 0x79 JUMPI DUP1 PUSH4 0xBA087652 EQ PUSH2 0x2CE JUMPI DUP1 PUSH4 0xBA7BFFD3 EQ PUSH2 0x2E1 JUMPI DUP1 PUSH4 0xCB95A0CA EQ PUSH2 0x309 JUMPI DUP1 PUSH4 0xDD62ED3E EQ PUSH2 0x31E JUMPI DUP1 PUSH4 0xEF8B30F7 EQ PUSH2 0x331 JUMPI DUP1 PUSH4 0xF6A68453 EQ PUSH2 0x344 JUMPI PUSH0 DUP1 REVERT JUMPDEST DUP1 PUSH4 0x6E553F65 EQ PUSH2 0x251 JUMPI DUP1 PUSH4 0x70A08231 EQ PUSH2 0x264 JUMPI DUP1 PUSH4 0x7535D246 EQ PUSH2 0x28C JUMPI DUP1 PUSH4 0x95D89B41 EQ PUSH2 0x2B3 JUMPI DUP1 PUSH4 0xA9059CBB EQ PUSH2 0x2BB JUMPI PUSH0 DUP1 REVERT JUMPDEST DUP1 PUSH4 0x313CE567 GT PUSH2 0xFA JUMPI DUP1 PUSH4 0x313CE567 EQ PUSH2 0x1A4 JUMPI DUP1 PUSH4 0x4800D97F EQ PUSH2 0x1B9 JUMPI DUP1 PUSH4 0x4CDAD506 EQ PUSH2 0x1F8 JUMPI DUP1 PUSH4 0x51C0E061 EQ PUSH2 0x20B JUMPI DUP1 PUSH4 0x61E20A1C EQ PUSH2 0x232 JUMPI PUSH0 DUP1 REVERT JUMPDEST DUP1 PUSH4 0x1E1D114 EQ PUSH2 0x136 JUMPI DUP1 PUSH4 0x6FDDE03 EQ PUSH2 0x151 JUMPI DUP1 PUSH4 0x95EA7B3 EQ PUSH2 0x166 JUMPI DUP1 PUSH4 0x18160DDD EQ PUSH2 0x189 JUMPI DUP1 PUSH4 0x23B872DD EQ PUSH2 0x191 JUMPI JUMPDEST PUSH0 DUP1 REVERT JUMPDEST PUSH2 0x13E PUSH2 0x366 JUMP JUMPDEST PUSH1 0x40 MLOAD SWAP1 DUP2 MSTORE PUSH1 0x20 ADD JUMPDEST PUSH1 0x40 MLOAD DUP1 SWAP2 SUB SWAP1 RETURN JUMPDEST PUSH2 0x159 PUSH2 0x3F3 JUMP JUMPDEST PUSH1 0x40 MLOAD PUSH2 0x148 SWAP2 SWAP1 PUSH2 0x110B JUMP JUMPDEST PUSH2 0x179 PUSH2 0x174 CALLDATASIZE PUSH1 0x4 PUSH2 0x1171 JUMP JUMPDEST PUSH2 0x483 JUMP JUMPDEST PUSH1 0x40 MLOAD SWAP1 ISZERO ISZERO DUP2 MSTORE PUSH1 0x20 ADD PUSH2 0x148 JUMP JUMPDEST PUSH1 0x2 SLOAD PUSH2 0x13E JUMP JUMPDEST PUSH2 0x179 PUSH2 0x19F CALLDATASIZE PUSH1 0x4 PUSH2 0x1199 JUMP JUMPDEST PUSH2 0x49C JUMP JUMPDEST PUSH1 0x12 JUMPDEST PUSH1 0x40 MLOAD PUSH1 0xFF SWAP1 SWAP2 AND DUP2 MSTORE PUSH1 0x20 ADD PUSH2 0x148 JUMP JUMPDEST PUSH2 0x1E0 PUSH32 0x0 DUP2 JUMP JUMPDEST PUSH1 0x40 MLOAD PUSH1 0x1 PUSH1 0x1 PUSH1 0xA0 SHL SUB SWAP1 SWAP2 AND DUP2 MSTORE PUSH1 0x20 ADD PUSH2 0x148 JUMP JUMPDEST PUSH2 0x13E PUSH2 0x206 CALLDATASIZE PUSH1 0x4 PUSH2 0x11D2 JUMP JUMPDEST PUSH2 0x4C1 JUMP JUMPDEST PUSH2 0x1E0 PUSH32 0x0 DUP2 JUMP JUMPDEST PUSH2 0x13E PUSH2 0x240 CALLDATASIZE PUSH1 0x4 PUSH2 0x11E9 JUMP JUMPDEST PUSH1 0x8 PUSH1 0x20 MSTORE PUSH0 SWAP1 DUP2 MSTORE PUSH1 0x40 SWAP1 KECCAK256 SLOAD DUP2 JUMP JUMPDEST PUSH2 0x13E PUSH2 0x25F CALLDATASIZE PUSH1 0x4 PUSH2 0x1202 JUMP JUMPDEST PUSH2 0x4FE JUMP JUMPDEST PUSH2 0x13E PUSH2 0x272 CALLDATASIZE PUSH1 0x4 PUSH2 0x11E9 JUMP JUMPDEST PUSH1 0x1 PUSH1 0x1 PUSH1 0xA0 SHL SUB AND PUSH0 SWAP1 DUP2 MSTORE PUSH1 0x20 DUP2 SWAP1 MSTORE PUSH1 0x40 SWAP1 KECCAK256 SLOAD SWAP1 JUMP JUMPDEST PUSH2 0x1E0 PUSH32 0x0 DUP2 JUMP JUMPDEST PUSH2 0x159 PUSH2 0x6FE JUMP JUMPDEST PUSH2 0x179 PUSH2 0x2C9 CALLDATASIZE PUSH1 0x4 PUSH2 0x1171 JUMP JUMPDEST PUSH2 0x70D JUMP JUMPDEST PUSH2 0x13E PUSH2 0x2DC CALLDATASIZE PUSH1 0x4 PUSH2 0x122C JUMP JUMPDEST PUSH2 0x71A JUMP JUMPDEST PUSH2 0x1E0 PUSH2 0x2EF CALLDATASIZE PUSH1 0x4 PUSH2 0x11E9 JUMP JUMPDEST PUSH1 0x7 PUSH1 0x20 MSTORE PUSH0 SWAP1 DUP2 MSTORE PUSH1 0x40 SWAP1 KECCAK256 SLOAD PUSH1 0x1 PUSH1 0x1 PUSH1 0xA0 SHL SUB AND DUP2 JUMP JUMPDEST PUSH2 0x31C PUSH2 0x317 CALLDATASIZE PUSH1 0x4 PUSH2 0x1265 JUMP JUMPDEST PUSH2 0xB33 JUMP JUMPDEST STOP JUMPDEST PUSH2 0x13E PUSH2 0x32C CALLDATASIZE PUSH1 0x4 PUSH2 0x1294 JUMP JUMPDEST PUSH2 0xC50 JUMP JUMPDEST PUSH2 0x13E PUSH2 0x33F CALLDATASIZE PUSH1 0x4 PUSH2 0x11D2 JUMP JUMPDEST PUSH2 0xC7A JUMP JUMPDEST PUSH2 0x1A7 PUSH2 0x352 CALLDATASIZE PUSH1 0x4 PUSH2 0x11E9 JUMP JUMPDEST PUSH1 0x6 PUSH1 0x20 MSTORE PUSH0 SWAP1 DUP2 MSTORE PUSH1 0x40 SWAP1 KECCAK256 SLOAD PUSH1 0xFF AND DUP2 JUMP JUMPDEST PUSH1 0x40 MLOAD PUSH4 0x70A08231 PUSH1 0xE0 SHL DUP2 MSTORE ADDRESS PUSH1 0x4 DUP3 ADD MSTORE PUSH0 SWAP1 PUSH32 0x0 PUSH1 0x1 PUSH1 0x1 PUSH1 0xA0 SHL SUB AND SWAP1 PUSH4 0x70A08231 SWAP1 PUSH1 0x24 ADD PUSH1 0x20 PUSH1 0x40 MLOAD DUP1 DUP4 SUB DUP2 DUP7 GAS STATICCALL ISZERO DUP1 ISZERO PUSH2 0x3CA JUMPI RETURNDATASIZE PUSH0 DUP1 RETURNDATACOPY RETURNDATASIZE PUSH0 REVERT JUMPDEST POP POP POP POP PUSH1 0x40 MLOAD RETURNDATASIZE PUSH1 0x1F NOT PUSH1 0x1F DUP3 ADD AND DUP3 ADD DUP1 PUSH1 0x40 MSTORE POP DUP2 ADD SWAP1 PUSH2 0x3EE SWAP2 SWAP1 PUSH2 0x12AE JUMP JUMPDEST SWAP1 POP SWAP1 JUMP JUMPDEST PUSH1 0x60 PUSH1 0x3 DUP1 SLOAD PUSH2 0x402 SWAP1 PUSH2 0x12C5 JUMP JUMPDEST DUP1 PUSH1 0x1F ADD PUSH1 0x20 DUP1 SWAP2 DIV MUL PUSH1 0x20 ADD PUSH1 0x40 MLOAD SWAP1 DUP2 ADD PUSH1 0x40 MSTORE DUP1 SWAP3 SWAP2 SWAP1 DUP2 DUP2 MSTORE PUSH1 0x20 ADD DUP3 DUP1 SLOAD PUSH2 0x42E SWAP1 PUSH2 0x12C5 JUMP JUMPDEST DUP1 ISZERO PUSH2 0x479 JUMPI DUP1 PUSH1 0x1F LT PUSH2 0x450 JUMPI PUSH2 0x100 DUP1 DUP4 SLOAD DIV MUL DUP4 MSTORE SWAP2 PUSH1 0x20 ADD SWAP2 PUSH2 0x479 JUMP JUMPDEST DUP3 ADD SWAP2 SWAP1 PUSH0 MSTORE PUSH1 0x20 PUSH0 KECCAK256 SWAP1 JUMPDEST DUP2 SLOAD DUP2 MSTORE SWAP1 PUSH1 0x1 ADD SWAP1 PUSH1 0x20 ADD DUP1 DUP4 GT PUSH2 0x45C JUMPI DUP3 SWAP1 SUB PUSH1 0x1F AND DUP3 ADD SWAP2 JUMPDEST POP POP POP POP POP SWAP1 POP SWAP1 JUMP JUMPDEST PUSH0 CALLER PUSH2 0x490 DUP2 DUP6 DUP6 PUSH2 0xCA6 JUMP JUMPDEST PUSH1 0x1 SWAP2 POP POP JUMPDEST SWAP3 SWAP2 POP POP JUMP JUMPDEST PUSH0 CALLER PUSH2 0x4A9 DUP6 DUP3 DUP6 PUSH2 0xCB8 JUMP JUMPDEST PUSH2 0x4B4 DUP6 DUP6 DUP6 PUSH2 0xD1C JUMP JUMPDEST PUSH1 0x1 SWAP2 POP POP JUMPDEST SWAP4 SWAP3 POP POP POP JUMP JUMPDEST PUSH0 DUP1 PUSH2 0x4CC PUSH1 0x2 SLOAD SWAP1 JUMP JUMPDEST SWAP1 POP DUP1 ISZERO PUSH2 0x4F6 JUMPI DUP1 PUSH2 0x4DD PUSH2 0x366 JUMP JUMPDEST PUSH2 0x4E7 SWAP1 DUP6 PUSH2 0x1311 JUMP JUMPDEST PUSH2 0x4F1 SWAP2 SWAP1 PUSH2 0x1328 JUMP JUMPDEST PUSH2 0x4BA JUMP JUMPDEST PUSH0 SWAP4 SWAP3 POP POP POP JUMP JUMPDEST PUSH0 PUSH2 0x507 PUSH2 0xD79 JUMP JUMPDEST PUSH0 DUP4 GT PUSH2 0x54E JUMPI PUSH1 0x40 MLOAD PUSH3 0x461BCD PUSH1 0xE5 SHL DUP2 MSTORE PUSH1 0x20 PUSH1 0x4 DUP3 ADD MSTORE PUSH1 0x10 PUSH1 0x24 DUP3 ADD MSTORE PUSH16 0x43616E6E6F74206465706F736974203 PUSH1 0x84 SHL PUSH1 0x44 DUP3 ADD MSTORE PUSH1 0x64 ADD JUMPDEST PUSH1 0x40 MLOAD DUP1 SWAP2 SUB SWAP1 REVERT JUMPDEST PUSH1 0x1 PUSH1 0x1 PUSH1 0xA0 SHL SUB DUP3 AND PUSH2 0x597 JUMPI PUSH1 0x40 MLOAD PUSH3 0x461BCD PUSH1 0xE5 SHL DUP2 MSTORE PUSH1 0x20 PUSH1 0x4 DUP3 ADD MSTORE PUSH1 0x10 PUSH1 0x24 DUP3 ADD MSTORE PUSH16 0x24B73B30B634B2103932B1B2B4BB32B9 PUSH1 0x81 SHL PUSH1 0x44 DUP3 ADD MSTORE PUSH1 0x64 ADD PUSH2 0x545 JUMP JUMPDEST PUSH2 0x5A0 DUP4 PUSH2 0xC7A JUMP JUMPDEST SWAP1 POP PUSH0 DUP2 GT PUSH2 0x5DF JUMPI PUSH1 0x40 MLOAD PUSH3 0x461BCD PUSH1 0xE5 SHL DUP2 MSTORE PUSH1 0x20 PUSH1 0x4 DUP3 ADD MSTORE PUSH1 0xB PUSH1 0x24 DUP3 ADD MSTORE PUSH11 0x5A65726F20736861726573 PUSH1 0xA8 SHL PUSH1 0x44 DUP3 ADD MSTORE PUSH1 0x64 ADD PUSH2 0x545 JUMP JUMPDEST PUSH1 0x1 PUSH1 0x1 PUSH1 0xA0 SHL SUB DUP3 AND PUSH0 SWAP1 DUP2 MSTORE PUSH1 0x8 PUSH1 0x20 MSTORE PUSH1 0x40 DUP2 KECCAK256 DUP1 SLOAD DUP6 SWAP3 SWAP1 PUSH2 0x606 SWAP1 DUP5 SWAP1 PUSH2 0x1347 JUMP JUMPDEST SWAP1 SWAP2 SSTORE POP PUSH2 0x641 SWAP1 POP PUSH1 0x1 PUSH1 0x1 PUSH1 0xA0 SHL SUB PUSH32 0x0 AND CALLER ADDRESS DUP7 PUSH2 0xDA3 JUMP JUMPDEST PUSH1 0x40 MLOAD PUSH4 0x617BA037 PUSH1 0xE0 SHL DUP2 MSTORE PUSH1 0x1 PUSH1 0x1 PUSH1 0xA0 SHL SUB PUSH32 0x0 DUP2 AND PUSH1 0x4 DUP4 ADD MSTORE PUSH1 0x24 DUP3 ADD DUP6 SWAP1 MSTORE ADDRESS PUSH1 0x44 DUP4 ADD MSTORE PUSH0 PUSH1 0x64 DUP4 ADD MSTORE PUSH32 0x0 AND SWAP1 PUSH4 0x617BA037 SWAP1 PUSH1 0x84 ADD PUSH0 PUSH1 0x40 MLOAD DUP1 DUP4 SUB DUP2 PUSH0 DUP8 DUP1 EXTCODESIZE ISZERO DUP1 ISZERO PUSH2 0x6D4 JUMPI PUSH0 DUP1 REVERT JUMPDEST POP GAS CALL ISZERO DUP1 ISZERO PUSH2 0x6E6 JUMPI RETURNDATASIZE PUSH0 DUP1 RETURNDATACOPY RETURNDATASIZE PUSH0 REVERT JUMPDEST POP POP POP POP PUSH2 0x6F4 DUP3 DUP3 PUSH2 0xE0A JUMP JUMPDEST PUSH2 0x496 PUSH1 0x1 PUSH1 0x5 SSTORE JUMP JUMPDEST PUSH1 0x60 PUSH1 0x4 DUP1 SLOAD PUSH2 0x402 SWAP1 PUSH2 0x12C5 JUMP JUMPDEST PUSH0 CALLER PUSH2 0x490 DUP2 DUP6 DUP6 PUSH2 0xD1C JUMP JUMPDEST PUSH0 PUSH2 0x723 PUSH2 0xD79 JUMP JUMPDEST PUSH0 DUP5 GT PUSH2 0x764 JUMPI PUSH1 0x40 MLOAD PUSH3 0x461BCD PUSH1 0xE5 SHL DUP2 MSTORE PUSH1 0x20 PUSH1 0x4 DUP3 ADD MSTORE PUSH1 0xF PUSH1 0x24 DUP3 ADD MSTORE PUSH15 0x43616E6E6F742072656465656D203 PUSH1 0x8C SHL PUSH1 0x44 DUP3 ADD MSTORE PUSH1 0x64 ADD PUSH2 0x545 JUMP JUMPDEST PUSH1 0x1 PUSH1 0x1 PUSH1 0xA0 SHL SUB DUP4 AND PUSH2 0x7AD JUMPI PUSH1 0x40 MLOAD PUSH3 0x461BCD PUSH1 0xE5 SHL DUP2 MSTORE PUSH1 0x20 PUSH1 0x4 DUP3 ADD MSTORE PUSH1 0x10 PUSH1 0x24 DUP3 ADD MSTORE PUSH16 0x24B73B30B634B2103932B1B2B4BB32B9 PUSH1 0x81 SHL PUSH1 0x44 DUP3 ADD MSTORE PUSH1 0x64 ADD PUSH2 0x545 JUMP JUMPDEST CALLER PUSH1 0x1 PUSH1 0x1 PUSH1 0xA0 SHL SUB DUP4 AND EQ PUSH2 0x831 JUMPI PUSH0 PUSH2 0x7C8 DUP4 CALLER PUSH2 0xC50 JUMP JUMPDEST SWAP1 POP DUP5 DUP2 LT ISZERO PUSH2 0x813 JUMPI PUSH1 0x40 MLOAD PUSH3 0x461BCD PUSH1 0xE5 SHL DUP2 MSTORE PUSH1 0x20 PUSH1 0x4 DUP3 ADD MSTORE PUSH1 0x16 PUSH1 0x24 DUP3 ADD MSTORE PUSH22 0x496E73756666696369656E7420616C6C6F77616E6365 PUSH1 0x50 SHL PUSH1 0x44 DUP3 ADD MSTORE PUSH1 0x64 ADD PUSH2 0x545 JUMP JUMPDEST PUSH0 NOT DUP2 EQ PUSH2 0x82F JUMPI PUSH2 0x82F DUP4 CALLER PUSH2 0x82A DUP9 DUP6 PUSH2 0x135A JUMP JUMPDEST PUSH2 0xCA6 JUMP JUMPDEST POP JUMPDEST PUSH2 0x83A DUP5 PUSH2 0x4C1 JUMP JUMPDEST SWAP1 POP PUSH0 DUP2 GT PUSH2 0x879 JUMPI PUSH1 0x40 MLOAD PUSH3 0x461BCD PUSH1 0xE5 SHL DUP2 MSTORE PUSH1 0x20 PUSH1 0x4 DUP3 ADD MSTORE PUSH1 0xB PUSH1 0x24 DUP3 ADD MSTORE PUSH11 0x5A65726F20617373657473 PUSH1 0xA8 SHL PUSH1 0x44 DUP3 ADD MSTORE PUSH1 0x64 ADD PUSH2 0x545 JUMP JUMPDEST PUSH1 0x1 PUSH1 0x1 PUSH1 0xA0 SHL SUB DUP3 AND PUSH0 SWAP1 DUP2 MSTORE PUSH1 0x20 DUP2 DUP2 MSTORE PUSH1 0x40 DUP1 DUP4 KECCAK256 SLOAD PUSH1 0x8 SWAP1 SWAP3 MSTORE DUP3 KECCAK256 SLOAD SWAP1 SWAP2 DUP3 PUSH2 0x8A7 JUMPI PUSH0 PUSH2 0x8BC JUMP JUMPDEST DUP3 PUSH2 0x8B2 DUP9 DUP5 PUSH2 0x1311 JUMP JUMPDEST PUSH2 0x8BC SWAP2 SWAP1 PUSH2 0x1328 JUMP JUMPDEST SWAP1 POP DUP1 DUP3 GT PUSH2 0x8CB JUMPI PUSH0 PUSH2 0x8D5 JUMP JUMPDEST PUSH2 0x8D5 DUP2 DUP4 PUSH2 0x135A JUMP JUMPDEST PUSH1 0x1 PUSH1 0x1 PUSH1 0xA0 SHL SUB DUP7 AND PUSH0 SWAP1 DUP2 MSTORE PUSH1 0x8 PUSH1 0x20 MSTORE PUSH1 0x40 SWAP1 KECCAK256 SSTORE PUSH2 0x8F7 DUP6 DUP9 PUSH2 0xE42 JUMP JUMPDEST PUSH1 0x40 MLOAD PUSH4 0x1A4CA37B PUSH1 0xE2 SHL DUP2 MSTORE PUSH1 0x1 PUSH1 0x1 PUSH1 0xA0 SHL SUB PUSH32 0x0 DUP2 AND PUSH1 0x4 DUP4 ADD MSTORE PUSH1 0x24 DUP3 ADD DUP7 SWAP1 MSTORE ADDRESS PUSH1 0x44 DUP4 ADD MSTORE PUSH0 SWAP2 PUSH32 0x0 SWAP1 SWAP2 AND SWAP1 PUSH4 0x69328DEC SWAP1 PUSH1 0x64 ADD PUSH1 0x20 PUSH1 0x40 MLOAD DUP1 DUP4 SUB DUP2 PUSH0 DUP8 GAS CALL ISZERO DUP1 ISZERO PUSH2 0x98D JUMPI RETURNDATASIZE PUSH0 DUP1 RETURNDATACOPY RETURNDATASIZE PUSH0 REVERT JUMPDEST POP POP POP POP PUSH1 0x40 MLOAD RETURNDATASIZE PUSH1 0x1F NOT PUSH1 0x1F DUP3 ADD AND DUP3 ADD DUP1 PUSH1 0x40 MSTORE POP DUP2 ADD SWAP1 PUSH2 0x9B1 SWAP2 SWAP1 PUSH2 0x12AE JUMP JUMPDEST SWAP1 POP PUSH0 DUP3 DUP3 GT PUSH2 0x9C1 JUMPI PUSH0 PUSH2 0x9CB JUMP JUMPDEST PUSH2 0x9CB DUP4 DUP4 PUSH2 0x135A JUMP JUMPDEST PUSH1 0x1 PUSH1 0x1 PUSH1 0xA0 SHL SUB DUP9 AND PUSH0 SWAP1 DUP2 MSTORE PUSH1 0x6 PUSH1 0x20 MSTORE PUSH1 0x40 DUP2 KECCAK256 SLOAD SWAP2 SWAP3 POP SWAP1 PUSH1 0x64 SWAP1 PUSH2 0x9F7 SWAP1 PUSH1 0xFF AND DUP5 PUSH2 0x1311 JUMP JUMPDEST PUSH2 0xA01 SWAP2 SWAP1 PUSH2 0x1328 JUMP JUMPDEST SWAP1 POP PUSH0 PUSH2 0xA0E DUP3 DUP6 PUSH2 0x135A JUMP JUMPDEST SWAP1 POP PUSH0 DUP3 GT DUP1 ISZERO PUSH2 0xA37 JUMPI POP PUSH1 0x1 PUSH1 0x1 PUSH1 0xA0 SHL SUB DUP10 DUP2 AND PUSH0 SWAP1 DUP2 MSTORE PUSH1 0x7 PUSH1 0x20 MSTORE PUSH1 0x40 SWAP1 KECCAK256 SLOAD AND ISZERO ISZERO JUMPDEST ISZERO PUSH2 0xADC JUMPI PUSH1 0x1 PUSH1 0x1 PUSH1 0xA0 SHL SUB DUP1 DUP11 AND PUSH0 SWAP1 DUP2 MSTORE PUSH1 0x7 PUSH1 0x20 MSTORE PUSH1 0x40 SWAP1 KECCAK256 SLOAD PUSH2 0xA84 SWAP2 PUSH32 0x0 DUP2 AND SWAP2 AND DUP5 PUSH2 0xE76 JUMP JUMPDEST PUSH1 0x1 PUSH1 0x1 PUSH1 0xA0 SHL SUB DUP1 DUP11 AND PUSH0 DUP2 DUP2 MSTORE PUSH1 0x7 PUSH1 0x20 MSTORE PUSH1 0x40 SWAP1 DUP2 SWAP1 KECCAK256 SLOAD SWAP1 MLOAD SWAP3 AND SWAP2 PUSH32 0x74FC87CBB4BE85C415FFC1038CD5DCFC4F566ECC4ADB03FF9BE46C416162BC79 SWAP1 PUSH2 0xAD3 SWAP1 DUP7 DUP2 MSTORE PUSH1 0x20 ADD SWAP1 JUMP JUMPDEST PUSH1 0x40 MLOAD DUP1 SWAP2 SUB SWAP1 LOG3 JUMPDEST PUSH2 0xB20 DUP11 PUSH0 DUP5 GT PUSH2 0xAED JUMPI DUP6 PUSH2 0xAEF JUMP JUMPDEST DUP3 JUMPDEST PUSH1 0x1 PUSH1 0x1 PUSH1 0xA0 SHL SUB PUSH32 0x0 AND SWAP2 SWAP1 PUSH2 0xE76 JUMP JUMPDEST POP SWAP2 SWAP6 POP POP POP POP POP POP PUSH2 0x4BA PUSH1 0x1 PUSH1 0x5 SSTORE JUMP JUMPDEST PUSH1 0x64 DUP3 PUSH1 0xFF AND GT ISZERO PUSH2 0xB7C JUMPI PUSH1 0x40 MLOAD PUSH3 0x461BCD PUSH1 0xE5 SHL DUP2 MSTORE PUSH1 0x20 PUSH1 0x4 DUP3 ADD MSTORE PUSH1 0x12 PUSH1 0x24 DUP3 ADD MSTORE PUSH18 0x496E76616C69642070657263656E74616765 PUSH1 0x70 SHL PUSH1 0x44 DUP3 ADD MSTORE PUSH1 0x64 ADD PUSH2 0x545 JUMP JUMPDEST PUSH1 0x1 PUSH1 0x1 PUSH1 0xA0 SHL SUB DUP2 AND ISZERO ISZERO DUP1 PUSH2 0xB94 JUMPI POP PUSH1 0xFF DUP3 AND ISZERO JUMPDEST PUSH2 0xBD0 JUMPI PUSH1 0x40 MLOAD PUSH3 0x461BCD PUSH1 0xE5 SHL DUP2 MSTORE PUSH1 0x20 PUSH1 0x4 DUP3 ADD MSTORE PUSH1 0xD PUSH1 0x24 DUP3 ADD MSTORE PUSH13 0x496E76616C6964206361757365 PUSH1 0x98 SHL PUSH1 0x44 DUP3 ADD MSTORE PUSH1 0x64 ADD PUSH2 0x545 JUMP JUMPDEST CALLER PUSH0 DUP2 DUP2 MSTORE PUSH1 0x6 PUSH1 0x20 SWAP1 DUP2 MSTORE PUSH1 0x40 DUP1 DUP4 KECCAK256 DUP1 SLOAD PUSH1 0xFF NOT AND PUSH1 0xFF DUP9 AND SWAP1 DUP2 OR SWAP1 SWAP2 SSTORE PUSH1 0x7 DUP4 MSTORE SWAP3 DUP2 SWAP1 KECCAK256 DUP1 SLOAD PUSH1 0x1 PUSH1 0x1 PUSH1 0xA0 SHL SUB NOT AND PUSH1 0x1 PUSH1 0x1 PUSH1 0xA0 SHL SUB DUP8 AND SWAP1 DUP2 OR SWAP1 SWAP2 SSTORE DUP2 MLOAD SWAP4 DUP5 MSTORE SWAP2 DUP4 ADD SWAP2 SWAP1 SWAP2 MSTORE PUSH32 0x3F6AFADEDFCBD97B0172E2973F0FE1190EBA1E85B83FE7EB03145A83488AAD27 SWAP2 ADD PUSH1 0x40 MLOAD DUP1 SWAP2 SUB SWAP1 LOG2 POP POP JUMP JUMPDEST PUSH1 0x1 PUSH1 0x1 PUSH1 0xA0 SHL SUB SWAP2 DUP3 AND PUSH0 SWAP1 DUP2 MSTORE PUSH1 0x1 PUSH1 0x20 SWAP1 DUP2 MSTORE PUSH1 0x40 DUP1 DUP4 KECCAK256 SWAP4 SWAP1 SWAP5 AND DUP3 MSTORE SWAP2 SWAP1 SWAP2 MSTORE KECCAK256 SLOAD SWAP1 JUMP JUMPDEST PUSH0 DUP1 PUSH2 0xC85 PUSH1 0x2 SLOAD SWAP1 JUMP JUMPDEST SWAP1 POP DUP1 ISZERO PUSH2 0xC9F JUMPI PUSH2 0xC95 PUSH2 0x366 JUMP JUMPDEST PUSH2 0x4E7 DUP3 DUP6 PUSH2 0x1311 JUMP JUMPDEST POP SWAP1 SWAP2 SWAP1 POP JUMP JUMPDEST PUSH2 0xCB3 DUP4 DUP4 DUP4 PUSH1 0x1 PUSH2 0xEA7 JUMP JUMPDEST POP POP POP JUMP JUMPDEST PUSH0 PUSH2 0xCC3 DUP5 DUP5 PUSH2 0xC50 JUMP JUMPDEST SWAP1 POP PUSH0 NOT DUP2 LT ISZERO PUSH2 0xD16 JUMPI DUP2 DUP2 LT ISZERO PUSH2 0xD08 JUMPI PUSH1 0x40 MLOAD PUSH4 0x7DC7A0D9 PUSH1 0xE1 SHL DUP2 MSTORE PUSH1 0x1 PUSH1 0x1 PUSH1 0xA0 SHL SUB DUP5 AND PUSH1 0x4 DUP3 ADD MSTORE PUSH1 0x24 DUP2 ADD DUP3 SWAP1 MSTORE PUSH1 0x44 DUP2 ADD DUP4 SWAP1 MSTORE PUSH1 0x64 ADD PUSH2 0x545 JUMP JUMPDEST PUSH2 0xD16 DUP5 DUP5 DUP5 DUP5 SUB PUSH0 PUSH2 0xEA7 JUMP JUMPDEST POP POP POP POP JUMP JUMPDEST PUSH1 0x1 PUSH1 0x1 PUSH1 0xA0 SHL SUB DUP4 AND PUSH2 0xD45 JUMPI PUSH1 0x40 MLOAD PUSH4 0x4B637E8F PUSH1 0xE1 SHL DUP2 MSTORE PUSH0 PUSH1 0x4 DUP3 ADD MSTORE PUSH1 0x24 ADD PUSH2 0x545 JUMP JUMPDEST PUSH1 0x1 PUSH1 0x1 PUSH1 0xA0 SHL SUB DUP3 AND PUSH2 0xD6E JUMPI PUSH1 0x40 MLOAD PUSH4 0xEC442F05 PUSH1 0xE0 SHL DUP2 MSTORE PUSH0 PUSH1 0x4 DUP3 ADD MSTORE PUSH1 0x24 ADD PUSH2 0x545 JUMP JUMPDEST PUSH2 0xCB3 DUP4 DUP4 DUP4 PUSH2 0xF79 JUMP JUMPDEST PUSH1 0x2 PUSH1 0x5 SLOAD SUB PUSH2 0xD9C JUMPI PUSH1 0x40 MLOAD PUSH4 0x3EE5AEB5 PUSH1 0xE0 SHL DUP2 MSTORE PUSH1 0x4 ADD PUSH1 0x40 MLOAD DUP1 SWAP2 SUB SWAP1 REVERT JUMPDEST PUSH1 0x2 PUSH1 0x5 SSTORE JUMP JUMPDEST PUSH1 0x40 MLOAD PUSH1 0x1 PUSH1 0x1 PUSH1 0xA0 SHL SUB DUP5 DUP2 AND PUSH1 0x24 DUP4 ADD MSTORE DUP4 DUP2 AND PUSH1 0x44 DUP4 ADD MSTORE PUSH1 0x64 DUP3 ADD DUP4 SWAP1 MSTORE PUSH2 0xD16 SWAP2 DUP7 SWAP2 DUP3 AND SWAP1 PUSH4 0x23B872DD SWAP1 PUSH1 0x84 ADD JUMPDEST PUSH1 0x40 MLOAD PUSH1 0x20 DUP2 DUP4 SUB SUB DUP2 MSTORE SWAP1 PUSH1 0x40 MSTORE SWAP2 POP PUSH1 0xE0 SHL PUSH1 0x20 DUP3 ADD DUP1 MLOAD PUSH1 0x1 PUSH1 0x1 PUSH1 0xE0 SHL SUB DUP4 DUP2 DUP4 AND OR DUP4 MSTORE POP POP POP POP PUSH2 0x109F JUMP JUMPDEST PUSH1 0x1 PUSH1 0x1 PUSH1 0xA0 SHL SUB DUP3 AND PUSH2 0xE33 JUMPI PUSH1 0x40 MLOAD PUSH4 0xEC442F05 PUSH1 0xE0 SHL DUP2 MSTORE PUSH0 PUSH1 0x4 DUP3 ADD MSTORE PUSH1 0x24 ADD PUSH2 0x545 JUMP JUMPDEST PUSH2 0xE3E PUSH0 DUP4 DUP4 PUSH2 0xF79 JUMP JUMPDEST POP POP JUMP JUMPDEST PUSH1 0x1 PUSH1 0x1 PUSH1 0xA0 SHL SUB DUP3 AND PUSH2 0xE6B JUMPI PUSH1 0x40 MLOAD PUSH4 0x4B637E8F PUSH1 0xE1 SHL DUP2 MSTORE PUSH0 PUSH1 0x4 DUP3 ADD MSTORE PUSH1 0x24 ADD PUSH2 0x545 JUMP JUMPDEST PUSH2 0xE3E DUP3 PUSH0 DUP4 PUSH2 0xF79 JUMP JUMPDEST PUSH1 0x40 MLOAD PUSH1 0x1 PUSH1 0x1 PUSH1 0xA0 SHL SUB DUP4 DUP2 AND PUSH1 0x24 DUP4 ADD MSTORE PUSH1 0x44 DUP3 ADD DUP4 SWAP1 MSTORE PUSH2 0xCB3 SWAP2 DUP6 SWAP2 DUP3 AND SWAP1 PUSH4 0xA9059CBB SWAP1 PUSH1 0x64 ADD PUSH2 0xDD8 JUMP JUMPDEST PUSH1 0x1 PUSH1 0x1 PUSH1 0xA0 SHL SUB DUP5 AND PUSH2 0xED0 JUMPI PUSH1 0x40 MLOAD PUSH4 0xE602DF05 PUSH1 0xE0 SHL DUP2 MSTORE PUSH0 PUSH1 0x4 DUP3 ADD MSTORE PUSH1 0x24 ADD PUSH2 0x545 JUMP JUMPDEST PUSH1 0x1 PUSH1 0x1 PUSH1 0xA0 SHL SUB DUP4 AND PUSH2 0xEF9 JUMPI PUSH1 0x40 MLOAD PUSH4 0x4A1406B1 PUSH1 0xE1 SHL DUP2 MSTORE PUSH0 PUSH1 0x4 DUP3 ADD MSTORE PUSH1 0x24 ADD PUSH2 0x545 JUMP JUMPDEST PUSH1 0x1 PUSH1 0x1 PUSH1 0xA0 SHL SUB DUP1 DUP6 AND PUSH0 SWAP1 DUP2 MSTORE PUSH1 0x1 PUSH1 0x20 SWAP1 DUP2 MSTORE PUSH1 0x40 DUP1 DUP4 KECCAK256 SWAP4 DUP8 AND DUP4 MSTORE SWAP3 SWAP1 MSTORE KECCAK256 DUP3 SWAP1 SSTORE DUP1 ISZERO PUSH2 0xD16 JUMPI DUP3 PUSH1 0x1 PUSH1 0x1 PUSH1 0xA0 SHL SUB AND DUP5 PUSH1 0x1 PUSH1 0x1 PUSH1 0xA0 SHL SUB AND PUSH32 0x8C5BE1E5EBEC7D5BD14F71427D1E84F3DD0314C0F7B2291E5B200AC8C7C3B925 DUP5 PUSH1 0x40 MLOAD PUSH2 0xF6B SWAP2 DUP2 MSTORE PUSH1 0x20 ADD SWAP1 JUMP JUMPDEST PUSH1 0x40 MLOAD DUP1 SWAP2 SUB SWAP1 LOG3 POP POP POP POP JUMP JUMPDEST PUSH1 0x1 PUSH1 0x1 PUSH1 0xA0 SHL SUB DUP4 AND PUSH2 0xFA3 JUMPI DUP1 PUSH1 0x2 PUSH0 DUP3 DUP3 SLOAD PUSH2 0xF98 SWAP2 SWAP1 PUSH2 0x1347 JUMP JUMPDEST SWAP1 SWAP2 SSTORE POP PUSH2 0x1013 SWAP1 POP JUMP JUMPDEST PUSH1 0x1 PUSH1 0x1 PUSH1 0xA0 SHL SUB DUP4 AND PUSH0 SWAP1 DUP2 MSTORE PUSH1 0x20 DUP2 SWAP1 MSTORE PUSH1 0x40 SWAP1 KECCAK256 SLOAD DUP2 DUP2 LT ISZERO PUSH2 0xFF5 JUMPI PUSH1 0x40 MLOAD PUSH4 0x391434E3 PUSH1 0xE2 SHL DUP2 MSTORE PUSH1 0x1 PUSH1 0x1 PUSH1 0xA0 SHL SUB DUP6 AND PUSH1 0x4 DUP3 ADD MSTORE PUSH1 0x24 DUP2 ADD DUP3 SWAP1 MSTORE PUSH1 0x44 DUP2 ADD DUP4 SWAP1 MSTORE PUSH1 0x64 ADD PUSH2 0x545 JUMP JUMPDEST PUSH1 0x1 PUSH1 0x1 PUSH1 0xA0 SHL SUB DUP5 AND PUSH0 SWAP1 DUP2 MSTORE PUSH1 0x20 DUP2 SWAP1 MSTORE PUSH1 0x40 SWAP1 KECCAK256 SWAP1 DUP3 SWAP1 SUB SWAP1 SSTORE JUMPDEST PUSH1 0x1 PUSH1 0x1 PUSH1 0xA0 SHL SUB DUP3 AND PUSH2 0x102F JUMPI PUSH1 0x2 DUP1 SLOAD DUP3 SWAP1 SUB SWAP1 SSTORE PUSH2 0x104D JUMP JUMPDEST PUSH1 0x1 PUSH1 0x1 PUSH1 0xA0 SHL SUB DUP3 AND PUSH0 SWAP1 DUP2 MSTORE PUSH1 0x20 DUP2 SWAP1 MSTORE PUSH1 0x40 SWAP1 KECCAK256 DUP1 SLOAD DUP3 ADD SWAP1 SSTORE JUMPDEST DUP2 PUSH1 0x1 PUSH1 0x1 PUSH1 0xA0 SHL SUB AND DUP4 PUSH1 0x1 PUSH1 0x1 PUSH1 0xA0 SHL SUB AND PUSH32 0xDDF252AD1BE2C89B69C2B068FC378DAA952BA7F163C4A11628F55A4DF523B3EF DUP4 PUSH1 0x40 MLOAD PUSH2 0x1092 SWAP2 DUP2 MSTORE PUSH1 0x20 ADD SWAP1 JUMP JUMPDEST PUSH1 0x40 MLOAD DUP1 SWAP2 SUB SWAP1 LOG3 POP POP POP JUMP JUMPDEST PUSH0 DUP1 PUSH1 0x20 PUSH0 DUP5 MLOAD PUSH1 0x20 DUP7 ADD PUSH0 DUP9 GAS CALL DUP1 PUSH2 0x10BE JUMPI PUSH1 0x40 MLOAD RETURNDATASIZE PUSH0 DUP3 RETURNDATACOPY RETURNDATASIZE DUP2 REVERT JUMPDEST POP POP PUSH0 MLOAD RETURNDATASIZE SWAP2 POP DUP2 ISZERO PUSH2 0x10D5 JUMPI DUP1 PUSH1 0x1 EQ ISZERO PUSH2 0x10E2 JUMP JUMPDEST PUSH1 0x1 PUSH1 0x1 PUSH1 0xA0 SHL SUB DUP5 AND EXTCODESIZE ISZERO JUMPDEST ISZERO PUSH2 0xD16 JUMPI PUSH1 0x40 MLOAD PUSH4 0x5274AFE7 PUSH1 0xE0 SHL DUP2 MSTORE PUSH1 0x1 PUSH1 0x1 PUSH1 0xA0 SHL SUB DUP6 AND PUSH1 0x4 DUP3 ADD MSTORE PUSH1 0x24 ADD PUSH2 0x545 JUMP JUMPDEST PUSH0 PUSH1 0x20 DUP1 DUP4 MSTORE DUP4 MLOAD DUP1 DUP3 DUP6 ADD MSTORE PUSH0 JUMPDEST DUP2 DUP2 LT ISZERO PUSH2 0x1136 JUMPI DUP6 DUP2 ADD DUP4 ADD MLOAD DUP6 DUP3 ADD PUSH1 0x40 ADD MSTORE DUP3 ADD PUSH2 0x111A JUMP JUMPDEST POP PUSH0 PUSH1 0x40 DUP3 DUP7 ADD ADD MSTORE PUSH1 0x40 PUSH1 0x1F NOT PUSH1 0x1F DUP4 ADD AND DUP6 ADD ADD SWAP3 POP POP POP SWAP3 SWAP2 POP POP JUMP JUMPDEST DUP1 CALLDATALOAD PUSH1 0x1 PUSH1 0x1 PUSH1 0xA0 SHL SUB DUP2 AND DUP2 EQ PUSH2 0x116C JUMPI PUSH0 DUP1 REVERT JUMPDEST SWAP2 SWAP1 POP JUMP JUMPDEST PUSH0 DUP1 PUSH1 0x40 DUP4 DUP6 SUB SLT ISZERO PUSH2 0x1182 JUMPI PUSH0 DUP1 REVERT JUMPDEST PUSH2 0x118B DUP4 PUSH2 0x1156 JUMP JUMPDEST SWAP5 PUSH1 0x20 SWAP4 SWAP1 SWAP4 ADD CALLDATALOAD SWAP4 POP POP POP JUMP JUMPDEST PUSH0 DUP1 PUSH0 PUSH1 0x60 DUP5 DUP7 SUB SLT ISZERO PUSH2 0x11AB JUMPI PUSH0 DUP1 REVERT JUMPDEST PUSH2 0x11B4 DUP5 PUSH2 0x1156 JUMP JUMPDEST SWAP3 POP PUSH2 0x11C2 PUSH1 0x20 DUP6 ADD PUSH2 0x1156 JUMP JUMPDEST SWAP2 POP PUSH1 0x40 DUP5 ADD CALLDATALOAD SWAP1 POP SWAP3 POP SWAP3 POP SWAP3 JUMP JUMPDEST PUSH0 PUSH1 0x20 DUP3 DUP5 SUB SLT ISZERO PUSH2 0x11E2 JUMPI PUSH0 DUP1 REVERT JUMPDEST POP CALLDATALOAD SWAP2 SWAP1 POP JUMP JUMPDEST PUSH0 PUSH1 0x20 DUP3 DUP5 SUB SLT ISZERO PUSH2 0x11F9 JUMPI PUSH0 DUP1 REVERT JUMPDEST PUSH2 0x4BA DUP3 PUSH2 0x1156 JUMP JUMPDEST PUSH0 DUP1 PUSH1 0x40 DUP4 DUP6 SUB SLT ISZERO PUSH2 0x1213 JUMPI PUSH0 DUP1 REVERT JUMPDEST DUP3 CALLDATALOAD SWAP2 POP PUSH2 0x1223 PUSH1 0x20 DUP5 ADD PUSH2 0x1156 JUMP JUMPDEST SWAP1 POP SWAP3 POP SWAP3 SWAP1 POP JUMP JUMPDEST PUSH0 DUP1 PUSH0 PUSH1 0x60 DUP5 DUP7 SUB SLT ISZERO PUSH2 0x123E JUMPI PUSH0 DUP1 REVERT JUMPDEST DUP4 CALLDATALOAD SWAP3 POP PUSH2 0x124E PUSH1 0x20 DUP6 ADD PUSH2 0x1156 JUMP JUMPDEST SWAP2 POP PUSH2 0x125C PUSH1 0x40 DUP6 ADD PUSH2 0x1156 JUMP JUMPDEST SWAP1 POP SWAP3 POP SWAP3 POP SWAP3 JUMP JUMPDEST PUSH0 DUP1 PUSH1 0x40 DUP4 DUP6 SUB SLT ISZERO PUSH2 0x1276 JUMPI PUSH0 DUP1 REVERT JUMPDEST DUP3 CALLDATALOAD PUSH1 0xFF DUP2 AND DUP2 EQ PUSH2 0x1286 JUMPI PUSH0 DUP1 REVERT JUMPDEST SWAP2 POP PUSH2 0x1223 PUSH1 0x20 DUP5 ADD PUSH2 0x1156 JUMP JUMPDEST PUSH0 DUP1 PUSH1 0x40 DUP4 DUP6 SUB SLT ISZERO PUSH2 0x12A5 JUMPI PUSH0 DUP1 REVERT JUMPDEST PUSH2 0x1286 DUP4 PUSH2 0x1156 JUMP JUMPDEST PUSH0 PUSH1 0x20 DUP3 DUP5 SUB SLT ISZERO PUSH2 0x12BE JUMPI PUSH0 DUP1 REVERT JUMPDEST POP MLOAD SWAP2 SWAP1 POP JUMP JUMPDEST PUSH1 0x1 DUP2 DUP2 SHR SWAP1 DUP3 AND DUP1 PUSH2 0x12D9 JUMPI PUSH1 0x7F DUP3 AND SWAP2 POP JUMPDEST PUSH1 0x20 DUP3 LT DUP2 SUB PUSH2 0x12F7 JUMPI PUSH4 0x4E487B71 PUSH1 0xE0 SHL PUSH0 MSTORE PUSH1 0x22 PUSH1 0x4 MSTORE PUSH1 0x24 PUSH0 REVERT JUMPDEST POP SWAP2 SWAP1 POP JUMP JUMPDEST PUSH4 0x4E487B71 PUSH1 0xE0 SHL PUSH0 MSTORE PUSH1 0x11 PUSH1 0x4 MSTORE PUSH1 0x24 PUSH0 REVERT JUMPDEST DUP1 DUP3 MUL DUP2 ISZERO DUP3 DUP3 DIV DUP5 EQ OR PUSH2 0x496 JUMPI PUSH2 0x496 PUSH2 0x12FD JUMP JUMPDEST PUSH0 DUP3 PUSH2 0x1342 JUMPI PUSH4 0x4E487B71 PUSH1 0xE0 SHL PUSH0 MSTORE PUSH1 0x12 PUSH1 0x4 MSTORE PUSH1 0x24 PUSH0 REVERT JUMPDEST POP DIV SWAP1 JUMP JUMPDEST DUP1 DUP3 ADD DUP1 DUP3 GT ISZERO PUSH2 0x496 JUMPI PUSH2 0x496 PUSH2 0x12FD JUMP JUMPDEST DUP2 DUP2 SUB DUP2 DUP2 GT ISZERO PUSH2 0x496 JUMPI PUSH2 0x496 PUSH2 0x12FD JUMP INVALID LOG2 PUSH5 0x6970667358 0x22 SLT KECCAK256 0xBF 0xCC 0xFC SWAP4 0x2C 0x27 LOG2 0xC2 POP PUSH1 0x16 DUP2 POP 0xD OR 0xFB SAR MLOAD 0xDE 0xAB 0xB8 0xA8 SGT MUL EXTCODESIZE 0x2D MSTORE8 LOG3 0x4E EXTCODESIZE CALLDATALOAD 0xE8 PUSH5 0x736F6C6343 STOP ADDMOD EQ STOP CALLER "},"methodIdentifiers":{"ASSET()":"4800d97f","ATOKEN()":"51c0e061","POOL()":"7535d246","allowance(address,address)":"dd62ed3e","approve(address,uint256)":"095ea7b3","balanceOf(address)":"70a08231","beneficiaryOf(address)":"ba7bffd3","decimals()":"313ce567","deposit(uint256,address)":"6e553f65","donationPctOf(address)":"f6a68453","name()":"06fdde03","previewDeposit(uint256)":"ef8b30f7","previewRedeem(uint256)":"4cdad506","principalOf(address)":"61e20a1c","redeem(uint256,address,address)":"ba087652","setMyDonation(uint8,address)":"cb95a0ca","symbol()":"95d89b41","totalAssets()":"01e1d114","totalSupply()":"18160ddd","transfer(address,uint256)":"a9059cbb","transferFrom(address,address,uint256)":"23b872dd"}}}}}